:100000000C9462000C948A000C948A000C948A0070
:100010000C948A000C948A000C948A000C948A0038
:100020000C948A000C948A000C948A000C948A0028
:100030000C948A000C948A000C948A000C948A0018
:100040000C946F030C948A000C948A000C948A0020
:100050000C948A000C948A000C948A000C948A00F8
:100060000C948A000C948A000000000024002700F1
:100070002A0000000000250028002B0000000000DE
:1000800023002600290004040404040404040202DA
:100090000202020203030303030301020408102007
:1000A0004080010204081020010204081020000012
:1000B0000008000201000003040700000000000027
:1000C0000000C80511241FBECFEFD8E0DEBFCDBFB2
:1000D00011E0A0E0B1E0E8E9F0E102C005900D9286
:1000E000AA38B107D9F721E0AAE8B1E001C01D9212
:1000F000AB3BB207E1F710E0C2E6D0E004C02197C5
:10010000FE010E944408C136D107C9F70E94B90315
:100110000C944A080C940000AF92BF92CF92DF92E9
:10012000EF92FF920F931F93CF93DF936C017B01AC
:100130008B01040F151FEB015E01AE18BF08C0173D
:10014000D10759F06991D601ED91FC910190F081B0
:10015000E02DC6010995892B79F7C501DF91CF9173
:100160001F910F91FF90EF90DF90CF90BF90AF90D5
:100170000895833081F028F4813099F08230A9F01D
:1001800008958730A9F08830C9F08430B1F48091A7
:1001900080008F7D03C0809180008F7780938000E6
:1001A000089584B58F7784BD089584B58F7DFBCF86
:1001B0008091B0008F778093B00008958091B00057
:1001C0008F7DF9CFCF93DF93282F30E0F901E255EF
:1001D000FF4F8491F901E656FF4FD491F901EA5798
:1001E000FF4FC491CC23A1F081110E94B900EC2FE4
:1001F000F0E0EE0FFF1FE458FF4FA591B491EC9192
:10020000ED2381E090E009F480E0DF91CF91089543
:1002100080E090E0FACF1F93CF93DF93282F30E058
:10022000F901E255FF4F8491F901E656FF4FD49151
:10023000F901EA57FF4FC491CC23A9F0162F811181
:100240000E94B900EC2FF0E0EE0FFF1FEE58FF4FB9
:10025000A591B4918FB7F894EC91111108C0D09585
:10026000DE23DC938FBFDF91CF911F910895DE2BAA
:10027000F8CFCF93DF9390E0FC01E656FF4F249137
:100280008A579F4FFC0184918823D1F090E0880F1A
:10029000991FFC01E859FF4FA591B491FC01EE585C
:1002A000FF4FC591D49161110EC09FB7F8948C9106
:1002B000E22FE0958E238C932881E223E8839FBF71
:1002C000DF91CF9108958FB7F894EC91E22BEC93E6
:1002D0008FBFF6CF3FB7F89480918B0190918C013E
:1002E000A0918D01B0918E0126B5A89B05C02F3F2E
:1002F00019F00196A11DB11D3FBFBA2FA92F982F4C
:100300008827BC01CD01620F711D811D911D42E046
:10031000660F771F881F991F4A95D1F708958F920E
:100320009F92AF92BF92CF92DF92EF92FF924B01DA
:100330005C010E946A016B017C010E946A016C19D8
:100340007D098E099F09683E734081059105A8F3D8
:1003500021E0821A9108A108B10888EEC80E83E056
:10036000D81EE11CF11C81149104A104B10429F7E9
:10037000FF90EF90DF90CF90BF90AF909F908F90C5
:100380000895089590E080E00895FC010190002018
:10039000E9F73197AF01481B590BBC0183EA91E0A3
:1003A0000C948C008F929F92AF92BF920F931F93E9
:1003B000CF93DF93CDB7DEB7A1970FB6F894DEBF2A
:1003C0000FBECDBF19A2423008F44AE08E010F5D86
:1003D0001F4F842E912CB12CA12CA50194010E94B9
:1003E0002208E62FB901CA01EA30F4F4E05DD80131
:1003F000EE938D01232B242B252B79F790E080E0C1
:10040000109719F0CD010E94C501A1960FB6F8947E
:10041000DEBF0FBECDBFDF91CF911F910F91BF9077
:10042000AF909F908F900895E95CE1CFCF93DF93D9
:10043000EC0160E08E810E940B0161E08E810E94E0
:100440000B0160E08E810E940B018BE891E0019727
:10045000F1F7DF91CF910895CF92DF92EF92FF9263
:100460000F931F93CF93DF936C017C0187E0E80E1D
:10047000F11CD0E0C0E0062F10E0B8010C2E02C045
:10048000759567950A94E2F76170F70181917F0194
:100490000E940B012196C430D10579F7C601DF9186
:1004A000CF911F910F91FF90EF90DF90CF900C9420
:1004B0001602CF92DF92EF92FF920F931F93CF938A
:1004C000DF93EC01F62E642F8C810E940B018D814D
:1004D0008F3F19F060E00E940B010F2D10E08F8517
:1004E00084FF25C06E0187E0C80ED11CF12CE12CE1
:1004F000B8010E2C02C0759567950A94E2F76170F9
:10050000F60181916F010E940B01FFEFEF1AFF0AC4
:1005100088E0E816F10461F7CE01DF91CF911F91D9
:100520000F91FF90EF90DF90CF900C941602B801DE
:1005300084E0759567958A95E1F7CE010E942C02BB
:100540006F2DCE01DF91CF911F910F91FF90EF9012
:10055000DF90CF900C942C0240E0682F83EA91E06A
:100560000C94590281E00E94AC028BE39FE1019759
:10057000F1F70895CF93DF93823029F49091B2017F
:1005800098609093B2018093B6011092B70180E415
:100590008093B80180E18093B90180E58093BA012E
:1005A00061E08091A7010E9439018091A8018F3FED
:1005B00019F061E00E94390161E08091A9010E9477
:1005C0003901C3EAD1E09E01235A31408091B20142
:1005D00084FD0BC084E090E021962817390744F48D
:1005E00061E08E810E943901EECF88E090E0F4CF87
:1005F0008BE39DE00197F1F760E08091A7010E94F5
:100600000B0160E08091A9010E940B018091A8017B
:100610008F3F19F060E00E940B018091B20184FDD0
:1006200034C063E083EA91E00E942C02CBE4D6E47C
:10063000CE010197F1F763E083EA91E00E942C027A
:100640002197F1F763E083EA91E00E942C0283E5B1
:1006500092E00197F1F762E083EA91E00E942C02B8
:100660008091B20180620E94AC0284E08093B30169
:100670008CE00E94AC020E94B20282E08093B4013E
:1006800086E0DF91CF910C94AC0280620E94AC02B4
:100690008BE496E40197F1F78091B20180620E94A9
:1006A000AC0283E592E00197F1F78091B20180629C
:1006B0000E94AC02D5CF9091B601891710F08FEF50
:1006C000890FE82FF0E0ED55FE4F848980680C9487
:1006D000AC0241E00E94590281E090E008951F922F
:1006E0000F920FB60F9211242F933F938F939F93E6
:1006F000AF93BF9380918F0190919001A091910150
:10070000B091920130918A0123E0230F2D3758F5E3
:100710000196A11DB11D20938A0180938F019093B2
:100720009001A0939101B093920180918B019091DF
:100730008C01A0918D01B0918E010196A11DB11D7A
:1007400080938B0190938C01A0938D01B0938E01C7
:10075000BF91AF919F918F913F912F910F900FBEBD
:100760000F901F90189526E8230F0296A11DB11D2A
:10077000D2CF789484B5826084BD84B5816084BD15
:1007800085B5826085BD85B5816085BD80916E002F
:10079000816080936E001092810080918100826060
:1007A000809381008091810081608093810080919D
:1007B00080008160809380008091B100846080938C
:1007C000B1008091B00081608093B00080917A0088
:1007D000846080937A0080917A00826080937A00AE
:1007E00080917A00816080937A0080917A0080689D
:1007F00080937A001092C10060E08EE00E9439017F
:1008000060E08FE00E94390161E08DE00E943901D3
:1008100082E00E94BA020E94B20280E00E945B0362
:100820008CE091E00E94C50181E00E945B038AE1B7
:1008300091E00E94C50160ED77E080E090E00E94C9
:100840008F010E94B20200E010E0C1E0D0E08EE033
:100850000E94E200892BC9F48091A1019091A2012C
:10086000892B99F42FB7F89480918F019091900182
:10087000A0919101B09192012FBF9093A00180931C
:100880009F01D093A201C093A1018FE00E94E200DA
:10089000892BC9F480919D0190919E01892B99F437
:1008A0002FB7F89480918F0190919001A0919101C0
:1008B000B09192012FBF90939C0180939B01D093A4
:1008C0009E01C0939D01E090A101F090A20121E062
:1008D000E216F10409F055C080919D0190919E01AE
:1008E000019709F04EC060919F017091A001809125
:1008F0009B0190919C01861797070CF067C0681BBD
:10090000790B072E000C880B990B0E94FB06609355
:100910009701709398018093990190939A0120E038
:1009200030E04AE754E4609197017091980180911A
:10093000990190919A010E9458069B01AC01209365
:100940009701309398014093990150939A0160E088
:1009500070E080EA90E40E94580620E030E041E632
:1009600055E40E94B00720E030E04AE754E40E94DA
:10097000580660939301709394018093950190932E
:10098000960120E030E0A9016091930170919401FB
:1009900080919501909196010E945306811122C089
:1009A00081E00E945B03EF28D1F480919D0190913A
:1009B0009E01892BA1F489E291E00E94C5010115F5
:1009C000110509F444CF0E94000041CF6817790750
:1009D0000CF0A5CF9C01261B370BB90192CF8AE3FF
:1009E00091E0EBCF0E94B20280E00E945B038BE4B7
:1009F00091E00E94C501C0909301D0909401E090D5
:100A00009501F0909601A7019601C701B6010E94D9
:100A10001D08882309F43FC082E591E00E94C501CA
:100A20008EE591E00E94C50181E00E945B0320E019
:100A300030E048E452E46091930170919401809118
:100A40009501909196010E94AB0718160CF09BC07F
:100A500086E691E00E94C50161E08DE00E940B01F5
:100A600068EB7BE080E090E00E948F0160E08DE029
:100A70000E940B0110929301109294011092950123
:100A8000109296011092A2011092A10110929E0163
:100A900010929D0194CF46015701E894B7F82FEFCB
:100AA0003FEF4FE75FE7C501B4010E941D088111C8
:100AB0000DC02FEF3FEF4FE75FE7C501B4010E9484
:100AC000530618161CF486E591E0A8CF2FEF3FEFF0
:100AD0004FE75FE4C701B6010E94AB0718161CF48C
:100AE0008AE591E09BCF2FEF3FEF4FE75FECC70127
:100AF000B6010E94530687FDF3CF20E030E0A90144
:100B0000C701B6010E94530687FF0AC041E06DE2AB
:100B100083EA91E00E945902F7FAF094F7F8F09412
:100B20002DEC3CEC4CE45DE3C701B6010E94E70507
:100B30004B015C010E94CA066B017C010E94F90610
:100B40009B01AC01C501B4010E94E6054B015C01AB
:100B50004AE0C701B6010E94D20141E06EE283EA99
:100B600091E00E94590220E030E040E251E4C501EA
:100B7000B4010E94B0070E94CA0690E080E04AE0FB
:100B80000E94D2014DCF88E791E00E94C50168CF55
:100B9000E3EAF1E01382128284E091E091838083A2
:100BA00082E084838FEF858383E0868384E087837C
:100BB00085E0808786E0818787E0828713861486B8
:100BC00015861686178681E00C94BA025058BB270A
:100BD000AA270E94FE050C9471070E94630738F053
:100BE0000E946A0720F039F49F3F19F426F40C9410
:100BF00060070EF4E095E7FB0C945A07E92F0E947A
:100C0000820758F3BA17620773078407950720F025
:100C100079F4A6F50C94A4070EF4E0950B2EBA2FE8
:100C2000A02D0B01B90190010C01CA01A0011124F2
:100C3000FF27591B99F0593F50F4503E68F11A169E
:100C4000F040A22F232F342F4427585FF3CF46952F
:100C500037952795A795F0405395C9F77EF41F1651
:100C6000BA0B620B730B840BBAF09150A1F0FF0F1B
:100C7000BB1F661F771F881FC2F70EC0BA0F621F07
:100C8000731F841F48F4879577956795B795F795F7
:100C90009E3F08F0B0CF9395880F08F09927EE0F8C
:100CA0009795879508950E94360708F481E0089586
:100CB0000E946C060C9471070E946A0758F00E940B
:100CC000630740F029F45F3F29F00C945A07511153
:100CD0000C94A5070C9460070E94820768F399237F
:100CE000B1F3552391F3951B550BBB27AA27621728
:100CF0007307840738F09F5F5F4F220F331F441F35
:100D0000AA1FA9F335D00E2E3AF0E0E832D0915068
:100D10005040E695001CCAF72BD0FE2F29D0660F55
:100D2000771F881FBB1F261737074807AB07B0E898
:100D300009F0BB0B802DBF01FF2793585F4F3AF09E
:100D40009E3F510578F00C945A070C94A5075F3F1D
:100D5000E4F3983ED4F3869577956795B795F79524
:100D60009F5FC9F7880F911D9695879597F908950C
:100D7000E1E0660F771F881FBB1F621773078407A8
:100D8000BA0720F0621B730B840BBA0BEE1F88F7B7
:100D9000E09508950E948A0788F09F5798F0B92F30
:100DA0009927B751B0F0E1F0660F771F881F991FA0
:100DB0001AF0BA95C9F714C0B13091F00E94A40797
:100DC000B1E008950C94A407672F782F8827B85FA7
:100DD00039F0B93FCCF3869577956795B395D9F7F8
:100DE0003EF490958095709561957F4F8F4F9F4F02
:100DF0000895E89409C097FB3EF49095809570950E
:100E000061957F4F8F4F9F4F9923A9F0F92F96E956
:100E1000BB279395F695879577956795B795F111CB
:100E2000F8CFFAF4BB0F11F460FF1BC06F5F7F4F68
:100E30008F4F9F4F16C0882311F096E911C077237A
:100E400021F09EE8872F762F05C0662371F096E883
:100E5000862F70E060E02AF09A95660F771F881F52
:100E6000DAF7880F9695879597F90895990F0008F6
:100E7000550FAA0BE0E8FEEF16161706E807F9076C
:100E8000C0F012161306E407F50798F0621B730B07
:100E9000840B950B39F40A2661F0232B242B252B88
:100EA00021F408950A2609F4A140A6958FEF811D2B
:100EB000811D089597F99F6780E870E060E00895CC
:100EC0009FEF80EC089500240A9416161706180662
:100ED0000906089500240A9412161306140605063E
:100EE0000895092E0394000C11F4882352F0BB0FCF
:100EF00040F4BF2B11F460FF04C06F5F7F4F8F4F32
:100F00009F4F089557FD9058440F551F59F05F3F6C
:100F100071F04795880F97FB991F61F09F3F79F01B
:100F200087950895121613061406551FF2CF46959D
:100F3000F1DF08C0161617061806991FF1CF86951F
:100F40007105610508940895E894BB276627772703
:100F5000CB0197F908950E94360708F48FEF0895A2
:100F60000E94C3070C9471070E94630738F00E9427
:100F70006A0720F0952311F00C945A070C9460072F
:100F800011240C94A5070E94820770F3959FC1F36A
:100F9000950F50E0551F629FF001729FBB27F00D27
:100FA000B11D639FAA27F00DB11DAA1F649F66277C
:100FB000B00DA11D661F829F2227B00DA11D621FCB
:100FC000739FB00DA11D621F839FA00D611D221F85
:100FD000749F3327A00D611D231F849F600D211D69
:100FE000822F762F6A2F11249F5750409AF0F1F0EC
:100FF00088234AF0EE0FFF1FBB1F661F771F881F55
:1010000091505040A9F79E3F510580F00C945A072B
:101010000C94A5075F3FE4F3983ED4F3869577954B
:101020006795B795F795E7959F5FC1F7FE2B880FFA
:10103000911D9695879597F908950E943607880B1C
:10104000990B0895A1E21A2EAA1BBB1BFD010DC02E
:10105000AA1FBB1FEE1FFF1FA217B307E407F50768
:1010600020F0A21BB30BE40BF50B661F771F881F44
:10107000991F1A9469F760957095809590959B01DA
:10108000AC01BD01CF010895EE0FFF1F0590F49153
:08109000E02D0994F894FFCF54
:101098000000000069038C00C201C1012054686986
:1010A8007320697320746865200073706565642017
:1010B8006465746563746F72004E6F20636172209B
:1010C8002064657465637465640053656172636860
:1010D800696E672E2E2E20202020005370656564CF
:1010E8003A006E616E00696E66006F7666004B6D41
:1010F8002F487220200020204F766572205370659B
:101108006564696E6720200020204E6F726D616CE7
:0A111800205370656564202020005C
:00000001FF
