:100000000C945D000C9485000C9485000C94850084
:100010000C9485000C9485000C9485000C9485004C
:100020000C9485000C9485000C9485000C9485003C
:100030000C9485000C9485000C9485000C9485002C
:100040000C9403030C9485000C94D1020C94AB0225
:100050000C9485000C9485000C9485000C9485000C
:100060000C9485000C94850000000008000201003B
:100070000003040700000000000000000000000072
:10008000250028002B0000000000240027002A0083
:10009000040404040404040402020202020203032E
:1000A0000303030301020408102040800102040836
:1000B0001020010204081020F10411241FBECFEF0C
:1000C000D8E0DEBFCDBF11E0A0E0B1E0E4E2FEE0A9
:1000D00002C005900D92A033B107D9F721E0A0E34B
:1000E000B1E001C01D92AA3DB207E1F710E0CDE5F5
:1000F000D0E004C02197FE010E940A07CC35D10749
:10010000C9F70E944D030C9410070C94000090E076
:10011000FC01EC55FF4F249180579F4FFC018491C7
:10012000882399F090E0880F991FFC01EA57FF4F50
:10013000A591B491FC01E458FF4F859194918FB73C
:10014000F894EC91E22BEC938FBF0895AF92BF929D
:10015000CF92DF92EF92FF920F931F93CF93DF9393
:100160006C017B018B01040F151FEB015E01AE18C2
:10017000BF08C017D10759F06991D601ED91FC91E4
:100180000190F081E02DC6010995892B79F7C50111
:10019000DF91CF911F910F91FF90EF90DF90CF9063
:1001A000BF90AF900895FC01538D448D252F30E012
:1001B000842F90E0821B930B541710F0CF96089574
:1001C00001970895FC01918D828D981761F0A28DA1
:1001D000AE0FBF2FB11D5D968C91928D9F5F9F7367
:1001E000928F90E008958FEF9FEF0895FC01918D1D
:1001F000828D981731F0828DE80FF11D858D90E08A
:1002000008958FEF9FEF0895FC01918D228D892F26
:1002100090E0805C9F4F821B91098F73992708950E
:100220008DE391E00E94040121E0892B09F420E094
:10023000822F089580E090E0892B29F00E94100120
:1002400081110C9400000895FC01A48DA80FB92F12
:10025000B11DA35ABF4F2C91848D90E001968F73EE
:100260009927848FA689B7892C93A089B1898C910D
:10027000837080648C93938D848D981306C002885C
:10028000F389E02D80818F7D80830895EF92FF9226
:100290000F931F93CF93DF93EC0181E0888F9B8DA9
:1002A0008C8D98131AC0E889F989808185FF15C063
:1002B0009FB7F894EE89FF896083E889F989808186
:1002C0008370806480839FBF81E090E0DF91CF9155
:1002D0001F910F91FF90EF900895F62E0B8D10E077
:1002E0000F5F1F4F0F731127E02E8C8D8E110CC0E6
:1002F0000FB607FCFACFE889F989808185FFF5CF31
:10030000CE010E942401F1CFEB8DEC0FFD2FF11DEA
:10031000E35AFF4FF0829FB7F8940B8FEA89FB896D
:1003200080818062CFCFCF93DF93EC01888D8823CB
:10033000B9F0AA89BB89E889F9898C9185FD03C048
:10034000808186FD0DC00FB607FCF7CF8C9185FF2D
:10035000F2CF808185FFEDCFCE010E942401E9CF4D
:10036000DF91CF91089590E0FC01E859FF4F24916F
:10037000FC01EC55FF4F3491FC01E057FF4FE49135
:10038000EE23C9F0222339F0233001F1A8F4213003
:1003900019F1223029F1F0E0EE0FFF1FE458FF4F72
:1003A000A591B4918FB7F894EC91611126C0309566
:1003B0003E233C938FBF08952730A9F02830C9F021
:1003C000243049F7809180008F7D03C080918000A8
:1003D0008F7780938000DFCF84B58F7784BDDBCFAC
:1003E00084B58F7DFBCF8091B0008F778093B00074
:1003F000D2CF8091B0008F7DF9CF3E2BDACF3FB7BF
:10040000F8948091350190913601A0913701B09117
:10041000380126B5A89B05C02F3F19F00196A11DF4
:10042000B11D3FBFBA2FA92F982F8827BC01CD013E
:10043000620F711D811D911D42E0660F771F881F9D
:10044000991F4A95D1F708958F929F92AF92BF92CC
:10045000CF92DF92EF92FF920E94FF014B015C016D
:1004600088EEC82E83E0D82EE12CF12C0E94FF01EB
:10047000681979098A099B09683E734081059105CD
:10048000A8F321E0C21AD108E108F10888EE880E2D
:1004900083E0981EA11CB11CC114D104E104F10435
:1004A00029F7FF90EF90DF90CF90BF90AF909F9093
:1004B0008F900895FC0101900020E9F73197AF017A
:1004C000481B590BBC018DE391E00C94A6008F9260
:1004D0009F92AF92BF920F931F93CF93DF93CDB7AD
:1004E000DEB7A1970FB6F894DEBF0FBECDBF19A23D
:1004F000423008F44AE08E010F5D1F4F842E912C8C
:10050000B12CA12CA50194010E94E806E62FB901A7
:10051000CA01EA30F4F4E05DD801EE938D01232B9B
:10052000242B252B79F790E080E0109719F0CD016E
:100530000E945A02A1960FB6F894DEBF0FBECDBF3F
:10054000DF91CF911F910F91BF90AF909F908F90AF
:100550000895E95CE1CF1F920F920FB60F9211241C
:100560002F933F934F935F936F937F938F939F93BB
:10057000AF93BF93EF93FF938DE391E00E9424012B
:10058000FF91EF91BF91AF919F918F917F916F916B
:100590005F914F913F912F910F900FBE0F901F9041
:1005A00018951F920F920FB60F9211242F938F93CD
:1005B0009F93EF93FF93E0914D01F0914E01808165
:1005C000E0915301F091540182FD1BC09081809114
:1005D00056018F5F8F7320915701821741F0E09190
:1005E0005601F0E0E35CFE4F958F80935601FF913A
:1005F000EF919F918F912F910F900FBE0F901F90B1
:1006000018958081F4CF1F920F920FB60F9211248C
:100610002F933F938F939F93AF93BF93809131011B
:1006200090913201A0913301B091340130913001A9
:1006300023E0230F2D3758F50196A11DB11D2093FE
:1006400030018093310190933201A0933301B09334
:1006500034018091350190913601A0913701B0911C
:1006600038010196A11DB11D80933501909336018B
:10067000A0933701B0933801BF91AF919F918F91B3
:100680003F912F910F900FBE0F901F90189526E865
:10069000230F0296A11DB11DD2CF789484B582603C
:1006A00084BD84B5816084BD85B5826085BD85B516
:1006B000816085BD80916E00816080936E00109294
:1006C000810080918100826080938100809181000F
:1006D00081608093810080918000816080938000A0
:1006E0008091B10084608093B1008091B0008160FE
:1006F0008093B00080917A00846080937A0080912A
:100700007A00826080937A0080917A008160809381
:100710007A0080917A00806880937A001092C100FC
:10072000E0914D01F0914E0182E08083E09149011A
:10073000F0914A011082E0914B01F0914C018FEC55
:10074000808310925501E0915101F091520186E0B1
:100750008083E0914F01F09150018081806180831E
:10076000E0914F01F0915001808188608083E09199
:100770004F01F0915001808180688083E0914F01AA
:10078000F091500180818F7D808389E00E948700F5
:1007900088E00E94870087E00E9487008AE00E942C
:1007A000870010E4C0E0D0E010937C0080917A00D4
:1007B000806480937A0080917A0086FDFCCF8091DE
:1007C000780060917900762F682F072E000C880B37
:1007D000990B0E94C10520E030E04AEF5EE30E94E1
:1007E00076066093390170933A0180933B019093B0
:1007F0003C0182E191E00E945A02C0903901D09000
:100800003A01E0903B01F0903C01A7019601C7013D
:10081000B6010E94E306882379F180E291E00E940C
:100820005A028CE291E00E945A02C0903901D090A5
:100830003A01E0903B01F0903C0120E030E040EADA
:1008400051E4C701B6010E948B0587FFA7C061E094
:1008500087E00E94B3010E94240260E087E00E94CA
:10086000B301209709F4A0CF0E941001882309F456
:100870009BCF0E94000098CF46015701E894B7F83B
:100880002FEF3FEF4FE75FE7C501B4010E94E3069A
:1008900081110DC02FEF3FEF4FE75FE7C501B401B6
:1008A0000E948B0518161CF484E291E0B8CF2FEF5C
:1008B0003FEF4FE75FE4C701B6010E9471061816CB
:1008C0001CF488E291E0ABCF2FEF3FEF4FE75FECF6
:1008D000C701B6010E948B0587FDF3CF20E030E011
:1008E000A901C701B6010E948B0587FF09C06DE20F
:1008F0008DE391E00E944601F7FAF094F7F8F09446
:100900002AE037ED43EA5BE3C701B6010E941F0509
:100910004B015C010E9490056B017C010E94BF05A8
:100920009B01AC01C501B4010E941E054B015C0195
:100930004AE0C701B6010E9467026EE28DE391E0D2
:100940000E94460120E030E040E251E4C501B401DC
:100950000E9476064B015C010E9490056B01F12C10
:10096000E12C4AE0C701B6010E946702C701B60147
:100970000E94BF059B01AC01C501B4010E941E0588
:1009800020E030E040E251E40E9476060E949005AB
:1009900090E080E04AE00E94670243CF20E030E030
:1009A00040E252E4C701B6010E948B0561E087FF77
:1009B00008C088E00E94B3010E94240260E088E041
:1009C0004ECF89E00E94B30161E08AE00E94B3014A
:1009D0000E94240260E089E00E94B30160E08AE0A6
:1009E0003ECFEDE3F1E01382128288EE93E0A0E0C7
:1009F000B0E084839583A683B78384E091E09183FC
:100A0000808385EC90E09587848784EC90E09787DD
:100A1000868780EC90E0918B808B81EC90E0938BCB
:100A2000828B82EC90E0958B848B86EC90E0978BA8
:100A3000868B118E128E138E148E08955058BB27FC
:100A4000AA270E9436050C9437060E94290638F022
:100A50000E94300620F039F49F3F19F426F40C94DC
:100A600026060EF4E095E7FB0C942006E92F0E9481
:100A7000480658F3BA17620773078407950720F0F2
:100A800079F4A6F50C946A060EF4E0950B2EBA2FB5
:100A9000A02D0B01B90190010C01CA01A001112484
:100AA000FF27591B99F0593F50F4503E68F11A1630
:100AB000F040A22F232F342F4427585FF3CF4695C1
:100AC00037952795A795F0405395C9F77EF41F16E3
:100AD000BA0B620B730B840BBAF09150A1F0FF0FAD
:100AE000BB1F661F771F881FC2F70EC0BA0F621F99
:100AF000731F841F48F4879577956795B795F79589
:100B00009E3F08F0B0CF9395880F08F09927EE0F1D
:100B10009795879508950E94FC0508F481E0089553
:100B20000E94500688F09F5798F0B92F9927B75127
:100B3000B0F0E1F0660F771F881F991F1AF0BA9581
:100B4000C9F714C0B13091F00E946A06B1E008956F
:100B50000C946A06672F782F8827B85F39F0B93F61
:100B6000CCF3869577956795B395D9F73EF4909534
:100B70008095709561957F4F8F4F9F4F0895E894B2
:100B800009C097FB3EF490958095709561957F4FD5
:100B90008F4F9F4F9923A9F0F92F96E9BB27939583
:100BA000F695879577956795B795F111F8CFFAF493
:100BB000BB0F11F460FF1BC06F5F7F4F8F4F9F4FC4
:100BC00016C0882311F096E911C0772321F09EE822
:100BD000872F762F05C0662371F096E8862F70E088
:100BE00060E02AF09A95660F771F881FDAF7880F62
:100BF0009695879597F90895990F0008550FAA0BB8
:100C0000E0E8FEEF16161706E807F907C0F012161F
:100C10001306E407F50798F0621B730B840B950B22
:100C200039F40A2661F0232B242B252B21F4089577
:100C30000A2609F4A140A6958FEF811D811D089514
:100C400097F99F6780E870E060E008959FEF80EC7F
:100C5000089500240A941616170618060906089522
:100C600000240A9412161306140605060895092E88
:100C70000394000C11F4882352F0BB0F40F4BF2BF7
:100C800011F460FF04C06F5F7F4F8F4F9F4F089537
:100C900057FD9058440F551F59F05F3F71F047952D
:100CA000880F97FB991F61F09F3F79F08795089512
:100CB000121613061406551FF2CF4695F1DF08C031
:100CC000161617061806991FF1CF8695710561054E
:100CD00008940895E894BB2766277727CB0197F9F6
:100CE00008950E94FC0508F48FEF08950E9489067C
:100CF0000C9437060E94290638F00E94300620F036
:100D0000952311F00C9420060C94260611240C94C3
:100D10006B060E94480670F3959FC1F3950F50E053
:100D2000551F629FF001729FBB27F00DB11D639F9D
:100D3000AA27F00DB11DAA1F649F6627B00DA11D43
:100D4000661F829F2227B00DA11D621F739FB00DE9
:100D5000A11D621F839FA00D611D221F749F332759
:100D6000A00D611D231F849F600D211D822F762FF2
:100D70006A2F11249F5750409AF0F1F088234AF0CF
:100D8000EE0FFF1FBB1F661F771F881F915050403B
:100D9000A9F79E3F510580F00C9420060C946B0639
:100DA0005F3FE4F3983ED4F3869577956795B795C2
:100DB000F795E7959F5FC1F7FE2B880F911D9695DC
:100DC000879597F908950E94FC05880B990B089563
:100DD000A1E21A2EAA1BBB1BFD010DC0AA1FBB1F3F
:100DE000EE1FFF1FA217B307E407F50720F0A21BB1
:100DF000B30BE40BF50B661F771F881F991F1A941E
:100E000069F760957095809590959B01AC01BD0147
:100E1000CF010895EE0FFF1F0590F491E02D099486
:040E2000F894FFCF74
:100E2400000000004601A600D30093010401E20083
:100E3400F60054656D70657261747572653A2000D0
:100E44006E616E00696E66006F7666000D0A0000C2
:00000001FF
